:020000041000EA
:10000000002008205D0100101B0100101D010010E0
:100010001101001011010010110100101101001058
:100020001901001019010010190100101F01001022
:10003000110100101901001021010010230100100E
:100040001101001011010010110100101101001028
:100050001101001011010010110100101101001018
:100060001101001011010010110100101101001008
:1000700011010010110100101101001011010010F8
:1000800011010010110100101101001011010010E8
:1000900011010010110100101101001011010010D8
:1000A00011010010110100101101001011010010C8
:1000B00011010010110100101101001011010010B8
:1000C00011010010110100101101001011010010A8
:1000D0001101001011010010110100101101001098
:1000E0001101001011010010110100101101001088
:1000F0001101001011010010110100101101001078
:100100001101001011010010110100101101001067
:10011000EFF30580103800BE00BE00BE00BE00BE7A
:1001200000BE00BEF2EB887140B3051060B305104D
:10013000A001001090A31AE7D3DEFFFF42012110B7
:10014000FF01000038D20500793512AB4FF00000F6
:100150001E49086006C881F3088810474FF05040D8
:10016000006810B14FF00000F2E70DA40ECC00299A
:1001700002D000F012F8F9E71549164A002000E015
:1001800001C19142FCD11449884714498847144958
:10019000884700BEFDE701C901C29A42FBD3704700
:1001A00060B30510200100203021002070D305101D
:1001B000000008200000082070D30510001008205F
:1001C00000100820000000007047000008ED00E06B
:1001D00030210020A0E800202D51001089020010DD
:1001E000F1500010F8B500BF0348044B834202D021
:1001F000034B03B118477047302100203021002005
:1002000000000000064B0749C91A891048BF013198
:10021000491003D0044B0BB101481847704700BF89
:1002200030210020302100200000000010B5064CD5
:10023000237843B9FFF7D8FF044B13B10448AFF359
:1002400000800123237010BD002300200000000067
:10025000B80C021008B5044B1BB104490448AFF3B5
:100260000080BDE80840CDE7000000000423002026
:10027000B80C021005F03EB903460A46014819467B
:1002800005F0B6B9B80C021000232DE9F04F4A4A28
:10029000BBB001AC07CACDE9043384E80700CDE95F
:1002A000063305F0A5F84FF4FA6002F075FD21461B
:1002B00020A800F06DF920A800F09EF904A920A85C
:1002C00001F0B2FB00286FD09DF81030002B67D0F2
:1002D0000025DFF8F4802E462F46384CDFF8ECA0DE
:1002E000DFF8EC9002F0F2FD002946D04FF47A726C
:1002F000002320F091FC8346002005F07BF8831C4E
:1003000011D00D2823683DD00A283BD05A1C5F2A03
:10031000F2D8E8336B4403F8C80C0020226005F0E3
:1003200069F8831CEDD19DF81030A3B940F6B831BF
:10033000BBEB050062EB0202884272F100020AD3B5
:100340005D46013641465A4620A806F0030600F0F5
:10035000C1F95AF8268004A95A46002320A801F0C2
:100360001DFC5A46002320A801F0D2F8322002F0EA
:1003700013FD02F0ABFD0029B8D1A9FB003B4FEA09
:100380009B1BB9E7002BB7D0E8336B4403F8C87C5C
:100390005A46002308A920A8276000F06BFEC2E798
:1003A000074805F0A7F893E7034606488DF8103094
:1003B00005F0A0F88CE700BF000E0210383E0020C8
:1003C000380D0210040D0210E00C02100C0E021089
:1003D000D34D6210A8B10EB410B5036E0446B3B08D
:1003E00053B136ABC021359A02A8019304F0E0FD69
:1003F000D4E9183102A8984733B0BDE8104003B0E3
:1004000070477047F8B50546104617460E461AF075
:1004100089FF20B33B460024114A02E00134A04288
:100420001DD0194613F801CB12F80CC01CF0080FB0
:10043000F4D13B1800E06046A04200F1FF3C0ED929
:1004400013F8017DD75D3F07F5D4041BB44200D3F8
:10045000741E224628461AF097FA00232B55F8BD41
:10046000B5AE0510836A026810B59342044660DB9E
:100470004268934248DCD4ED0B7A94ED027AF4EEB4
:10048000C77AF1EE10FA08DC94ED0C7AD4ED036A29
:10049000B4EEE67AF1EE10FA14DD94F84230012B56
:1004A00046D00122E36D84F842201BB1626E2B49D5
:1004B0002B4898472046BDE810402A4B274A2A4936
:1004C000FFF788BFD4ED046AF4EEE67AF1EE10FA95
:1004D0002ED8D4ED057AB4EEE77AF1EE10FA27D8EB
:1004E00094F8423023B30022E36D84F842201BB11C
:1004F000626E1E491A4898472046BDE810401C4BC2
:100500001A4A1949FFF766BF90F84130002BB2D064
:100510000022C36D80F841201BB1426E1549164878
:1005200098472046154B134A1549FFF753FFA2E79A
:1005300010BD90F84130012B9DD00122C36D80F891
:1005400041201BB1426E0F490B48984720460E4B85
:100550000C4A0B49FFF73EFF8DE700BF800E0210EB
:10056000880E02109C0E0210B40E0210D00E021063
:10057000D80E0210640E0210200E0210680E021037
:10058000480E02101C0E0210300E02100000000077
:1005900018B338B5442204460D46243000211AF021
:1005A000E5FA4FF48C724FF4A0739FED0D7BC4E914
:1005B00000234FF47A730C490C480D4AA1600D4991
:1005C00084ED067BE06021616261236225B195E8DC
:1005D00007005C3484E8070038BD7047AFF3008043
:1005E00088130000881300000000E04100008C42E6
:1005F000000082420000D841002853D0F0B50446E4
:100600002949B3B0FFF7E6FE94F84030012B43D000
:10061000E36D3BB12549626E2548984794F8403018
:10062000012B3DD0214A20462249FFF7D3FE94F802
:1006300040101E4A204BE06A012918BF1346099357
:1006400020F0E6FA0646206B0F4620F0E1FAA56A94
:10065000CDE90401CDE90267009594F841C0174E39
:10066000174D94F84270BCF1010F18BF3546154E76
:100670000695154D099B012F18BF3546A021134A39
:100680000AA8079504F07EFCE36D1BB1626E10486A
:100690000AA9984733B0F0BDE36D0BB10649BAE73C
:1006A000054AC0E7704700BF040F0210F40E0210A5
:1006B000180F0210240F0210FC0E0210640E02101C
:1006C0001C0E0210D00E0210800E0210380F021005
:1006D000740F02102DE9F0414FF0000C0026B6B067
:1006E00004460B96CDF830C0CDF834C0A0B10D460D
:1006F000002972D01F460DAB0846009390463A4938
:100700000CAB0BAA1AF08EFC032808D020462A4610
:100710003649FFF75FFE304636B0BDE8F081012371
:100720000B9D0D98E7630C9F84F85860E76284F88E
:100730003430C4F838802063A56220F069FA02469C
:100740000B463846CDE9022320F062FA06460F46F2
:100750002A462046CDE900672549FFF73BFE94F87D
:1007600040303BB994F8343033B12046FFF77AFE7D
:1007700094F84030012B34D01E4BE06A099320F0EE
:1007800047FA0646206B0F4620F042FAA56ACDE9EB
:100790000401CDE90267009594F841C0164E174D4B
:1007A00094F84270BCF1010F18BF3546144E0695FF
:1007B000144D099B012F18BF3546A021124A0EA8DF
:1007C000079504F0DFFBE36D1BB1626E0F480EA9C5
:1007D0009847012036B0BDE8F081084636B0BDE844
:1007E000F0810B4BC9E700BF880F0210A80F021061
:1007F000D00F0210F40E0210640E02101C0E021034
:10080000D00E0210800E0210380F0210740F02106A
:10081000FC0E02102DE9F0410646BAB0002800F0A7
:100820009F800C46002900F0E58000250846174609
:100830009846AE490EAB0AAA8DF828508DF838506C
:100840001AF0F0FB012840F3D9809DF82800002819
:1008500000F0DF8004464F25A54AA6490DF1280C7B
:100860000B5D03F00303012B4B5D08BF203403F045
:10087000030308BFE4B2012B04BF2035EDB2AC4244
:1008800007D11CF8014F002C6DD012F8015F002D2C
:10089000E6D14F23984D0AAC002B00F0BA800A5CD9
:1008A00002F00302012ACA5C08BF203002F00302F2
:1008B00008BFC0B2012A04BF2033DBB2834240F03C
:1008C000A88014F8010F002800F0BE8015F8013F41
:1008D000E2E75378002B70D101239E45C6E91278D8
:1008E00086F8594086F8423000F09180824A834B66
:1008F00030468349FFF76EFD96F84010814A824BDF
:10090000F06A012918BF1346099320F081F90446C3
:10091000306B0D4620F07CF9B76ACDE90245CDE990
:100920000401009796F841C0734D714C96F84270DF
:10093000BCF1010F18BF2C46744D06946F4C099BF7
:10094000012F18BF2C46A021714A12A8079404F069
:1009500019FBF36D1BB1726E6E4812A99847012006
:100960003AB0BDE8F0815378002B92D14FF0010EE0
:100970009DF838C086F841E0BCF1000F00F0AD8072
:1009800064464F255D4A0EA80B5D03F00303012B5F
:100990004B5D08BF203403F0030308BFE4B2012B12
:1009A00004BF2035EDB2AC4207D110F8014F002C46
:1009B0008FD012F8015F002DE6D162464323534CDD
:1009C0000EAD002B59D0885C00F003000128C85CF4
:1009D00008BF203200F0030008BFD2B2012804BFD4
:1009E0002033DBB29A4248D115F8012FD2B114F866
:1009F000013FE6E708463AB0BDE8F08130462246BE
:100A00004549FFF7E7FC28463AB0BDE8F081384A8F
:100A10006DE79DF838C096F841E0BCF1000F4FD06B
:100A20003449ADE7637843BB0021314B324AB764A8
:100A3000BEF1010F08BF1A46C6F84C80334B86F84A
:100A4000421086F8591053E795F801E0BEF1000F07
:100A5000DFD19DF838C086F84100BCF1000F8FD17E
:100A600096F84230244AB764C6F84C8086F859009C
:100A7000012B3FF43CAF254B3AE74322274C0EAB0A
:100A8000F2B111F80C0000F003000128885C08BFE7
:100A90000CF1200C00F0030008BF5FFA8CFC012869
:100AA00004BF2032D2B294450AD113F801CFBCF171
:100AB000000F02D014F8012FE2E76378002BB3D0C7
:100AC0000022BEF1010F96F84230B764C6F84C80A0
:100AD00086F8592007D0084ACAE7C6E9127896F87E
:100AE000423086F85940024AC2E700BF04100210A3
:100AF0001C0E0210B5AE0510640E0210800E02101E
:100B000048100210F40E0210FC0E0210D00E02105B
:100B1000380F0210740F0210201002101825021056
:100B2000002800F0D1800A46002900F0CD80002383
:100B3000F0B5BBB0044620210AA88DF82830FFF795
:100B400061FC9DF82830002B35D061480AA9C25CB1
:100B500002F00302012A31D00B7011F8013F002B83
:100B6000F5D19DF8283033B35A490AA81AF0FCFA97
:100B700000282ED058490AA81AF0F6FA48B3574967
:100B80000AA81AF0F1FA20B355490AA81AF0ECFAAB
:100B9000002872D053490AA81AF0E6FA00286CD04F
:100BA00051490AA81AF0E0FA002866D020464F49B9
:100BB0000AAAFFF70FFC00203BB0F0BD20330B70FA
:100BC00011F8013F002BC2D19DF82830002BCBD16A
:100BD000F1E794F84030002B4CD000232046444AE3
:100BE000444984F84030FFF7F5FB94F84010424B3D
:100BF000424A2046012918BF1A464149FFF7EAFB3D
:100C000094F840303BB994F8343033B12046FFF7C4
:100C100029FC94F84030012B58D0374BE06A0993F7
:100C20001FF0F6FF0F460646A56A206B1FF0F0FF87
:100C3000CDE90267CDE90401009594F841C0314E39
:100C4000314D94F84270BCF1010F18BF35462F4E5C
:100C500006952F4D099B012F18BF3546A0212D4A1F
:100C600012A8079504F08EF9E36D1BB1626E2A4855
:100C700012A9984701203BB0F0BD94F8400001282C
:100C80009AD00123204684F84030194A1949FFF7C9
:100C9000A1FB1A4D184E94F840202046012A0CBFA3
:100CA0002A4632461649FFF795FB94F84020E06A41
:100CB000012A0CBF2B46334609931FF0A9FFA56AF2
:100CC00006460F46206BB1E7002070470B4BA5E7A7
:100CD000B5AE05108C0D0210701002107C100210C1
:100CE000A8100210B0100210BC100210C8100210A0
:100CF0008810021090100210F40E0210FC0E021068
:100D0000240F0210640E02101C0E0210D00E0210EE
:100D1000800E0210380F0210740F021000284BD002
:100D20000A46002948D00023F0B5BBB00446202174
:100D30000AA88DF82830FFF765FB9DF828306BB3C3
:100D400059480AA9C25C02F00302012A29D00B709B
:100D500011F8013F002BF5D19DF82830F3B194F83C
:100D60004020012A08D02046504A51490AABFFF7DB
:100D700031FB00203BB0F0BD6F2B03D19DF8293033
:100D80006E2B1BD04B490AA81AF0EEF90346002837
:100D900053D0204648490AAAFFF71CFB00203BB06D
:100DA000F0BD20330B7011F8013F002BCAD19DF824
:100DB0002830002BD3D1F1E7002070479DF82A306E
:100DC000002BDFD120463D4984F84120FFF702FB8C
:100DD00094F840103A4A3B4BE06A012918BF134689
:100DE00009931FF015FF0646206B0F461FF010FFFA
:100DF000A56ACDE90401CDE90267009594F841C0E8
:100E0000314D324E94F84270BCF1010F18BF2E469E
:100E10002F4D06962F4E099B012F18BF2E46A0215D
:100E20002D4A12A8079604F0ADF8E36D1BB1626E6F
:100E30002A4812A998470120B1E72046284984F89A
:100E40004130FFF7C7FA94F840101D4A1D4BE06A85
:100E5000012918BF134609931FF0DAFE0646206BDE
:100E60000F461FF0D5FEA56ACDE90401CDE9026762
:100E7000009594F841E0154D134E94F84270BEF180
:100E8000010F08BF2E46134D0696114E099B012FE8
:100E900008BF2E46A021104A12A8079604F072F847
:100EA000E36D002BC3D1C6E7B5AE0510F0100210FC
:100EB000FC1002105C110210801102103C11021093
:100EC000F40E0210FC0E0210640E02101C0E021032
:100ED000D00E0210800E0210380F0210740F021094
:100EE0006011021000284FD00A4600294CD0002380
:100EF000F0B5BBB0044620210AA88DF82830FFF7D2
:100F000081FA9DF82830002B3BD049480AA9C25CE1
:100F100002F00302012A14D00B7011F8013F002BDC
:100F2000F5D19DF8283063B394F84050012D13D0CB
:100F30002046404A40490AABFFF74CFA00203BB03C
:100F4000F0BD20330B7011F8013F002BDFD19DF86D
:100F50002830002BE8D114E038490AA81AF004F927
:100F600000284FD036490AA81AF0FEF870B135496A
:100F70000AA81AF0F9F848B1204633490AAAFFF73F
:100F800029FA00203BB0F0BD002070470023204626
:100F90002E4984F84230FFF71DFA94F840102C4A8D
:100FA0002C4BE06A012918BF134609931FF030FE4D
:100FB00006460F46A56A206B1FF02AFECDE90267A0
:100FC000CDE90401009594F841C0234E234D94F8D7
:100FD0004270BCF1010F18BF3546214E0695214DD8
:100FE000099B012F18BF3546A0211F4A12A807955B
:100FF00003F0C8FFE36D1BB1626E1C4812A998474D
:1010000001209CE720461A4984F84250FFF7E2F994
:1010100094F840100E4A0F4BE06A012918BF13469E
:1010200009931FF0F5FDA56A06460F46C3E700BF0A
:10103000B5AE0510B0110210FC100210A81102107C
:10104000DC110210E411021010120210EC11021057
:10105000F40E0210FC0E0210640E02101C0E0210A0
:10106000D00E0210800E0210380F0210740F021002
:10107000BC110210002800F0F2800A46002900F09E
:10108000EE8000232DE9F043C3B0044640210AA8B6
:101090008DF82830FFF7B6F99DF82830002B7DD069
:1010A0008E480AA9C25C02F00302012A2ED00B70FE
:1010B00011F8013F002BF5D19DF82830002B6DD0A1
:1010C00087490AA81AF050F800286BD085490AA869
:1010D0001AF04AF8002865D083490AA81AF044F8A3
:1010E000002800F0BE8081490AA81AF03DF80028C7
:1010F00000F0B78094F84030012B12D020467C4A93
:101100007C490AABFFF766F9002048E020330B70FA
:1011100011F8013F002BC5D19DF82830002BCFD10D
:101120003CE075490AA81AF01FF8002800F00C816D
:1011300072490AA81AF018F8002800F005817049D1
:101140000AA81AF011F8002800F044816D490AA895
:101150001AF00AF8002800F03D816B490AA81AF03D
:1011600003F8002800F0478168490AA819F0FCFF3D
:10117000002800F0408166490AA819F0F5FF002810
:1011800000F08F8163490AA819F0EEFF002800F0F3
:101190008881204660490AAAFFF71CF9002043B065
:1011A000BDE8F08394F84030002B54D00023204653
:1011B00084F840304E4A5949FFF70CF994F8403012
:1011C000012B7FD0E36D3BB15549626E554898477E
:1011D00094F84030012B79D0514A20465249FFF70C
:1011E000F9F894F840303BB994F8343033B12046E4
:1011F000FFF738F994F84030012B61D0484BE06A92
:1012000009931FF005FD0F460646A56A206B1FF0E7
:10121000FFFCCDE90267CDE90401009594F841C0D7
:10122000424E434D94F84270BCF1010F18BF354651
:10123000404E0695404D099B012F18BF3546A02111
:101240003E4A1AA8079503F09DFEE36D1BB1626E3E
:101250003B481AA99847012043B0BDE8F08300201D
:10126000704794F84000012899D00123204684F863
:1012700040301F4A2949FFF7ADF894F84030012B60
:1012800026D0E36D3BB12649626E2648984794F814
:101290004030012B20D0224A20462349FFF79AF8FC
:1012A00094F840101E4A274BE06A012918BF1346E4
:1012B00009931FF0ADFCA56A06460F46206BA6E712
:1012C000204B9CE7E36D0BB11E497EE71D4A84E786
:1012D000E36D0BB11B49D7E71A4ADDE7B5AE051040
:1012E000701002107C100210B0100210BC1002101E
:1012F0003C120210FC100210441202105012021094
:101300005C12021068120210741202108012021095
:101310008C1202109C120210AC12021090100210DB
:10132000F40E0210180F0210240F0210640E0210A7
:101330001C0E0210D00E0210800E0210380F021088
:10134000740F0210FC0E021094F84130012B00F0D3
:1013500096800122E36D84F841201BB1626E6049E2
:10136000604898472046604B5D4A6049FFF732F875
:1013700094F84030E06A012B0CBFDFF88C81DFF875
:101380008C811FF045FC0646206B0F4694F8419077
:101390001FF03EFC524B564AA56AB9F1010F18BF27
:1013A0001346CDE90401CDE902670693009594F850
:1013B00042605048504D4346012E18BF2846A02198
:1013C00007904E4A1AA803F0DDFDE36D002B7FF471
:1013D0003EAF40E794F84130002B73D00022E36D1C
:1013E00084F841201BB1626E41493E48984720462F
:1013F0003D4B3F4AB9E794F84250012D4ED00122AF
:10140000E36D84F842201BB1626E3A493C4898472C
:101410002046354B374A3B49FEF7DCFF94F8403015
:10142000012B39D0DFF8E48094F84250E06A1FF0D5
:10143000EFFB0646206B0F461FF0EAFBD4F828901E
:10144000CDE90401CDE90267CDF8009094F8416040
:10145000274823494346012E18BF0146254E0691D1
:101460002549264A012D18BF0E461AA8A021079625
:1014700003F088FDE36D002B7FF4E9AEEBE6E06A54
:101480001FF0C6FB0646206B0F46A56A1FF0C0FB87
:10149000DFF87480124B84E794F84250DFF86880DC
:1014A000C4E794F84250002DF8D00022E36D84F890
:1014B00042201BB1626E10491148984720460A4BE2
:1014C0000D4AA8E7E06A1FF0A3FB0646206B0F4613
:1014D000A56A1FF09DFBDFF83080054B61E700BF78
:1014E0001C0E0210200E0210A8100210480E02104E
:1014F000640E0210800E0210D00E0210380F02107F
:10150000880E0210B40E0210FC0E0210F40E02102F
:10151000002800F0CA802DE9F04190F8341004460C
:1015200090461F46B2B069B190F8581051B9856B1A
:10153000C66B551B63EB06068369AB4271EB060372
:10154000C0F0A480D4E9121051EA00030CD094F842
:1015500059504DB9E669B8EB010167EB00008E42C6
:1015600075EB0003C0F09980D4E91410236AB8EB3E
:10157000010167EB0000994270F1000302D232B022
:10158000BDE8F08194F83410C4E91487002962D0D2
:1015900094F84010454B464AE06A012908BF1A46B4
:1015A000A36A099208931FF033FB0646206B0F468F
:1015B0001FF02EFBDDE90832CDE90201CDE900671D
:1015C0003C4D94F841703C4E2046012F18BF3546E3
:1015D000049594F84270394D394E3A49012F18BF9D
:1015E00035460595FEF7F6FE94F84010304A2F4B2D
:1015F000E06A012918BF134608931FF009FB06464D
:10160000206B0F461FF004FBA56ACDE90401CDE96C
:101610000267009594F841C0274E264D94F8427019
:10162000BCF1010F18BF3546254E0695234D089B8A
:10163000012F18BF3546A021234A0AA8079503F0B9
:10164000A1FCE36D002B9AD0626E20480AA998474E
:1016500032B0BDE8F08194F84270194E174D94F8FD
:101660004010012F18BF3546114B104A94F8410025
:10167000012918BF1A4610490E4B0095012818BFC2
:101680000B4620461249FEF7A5FEADE7012511499C
:1016900080F85850FEF79EFE54E7012520460E497B
:1016A00084F85950FEF796FE5EE77047FC0E021074
:1016B000F40E02101C0E0210640E0210800E0210B6
:1016C000D00E02104C130210380F0210740F0210CB
:1016D00014130210D0120210F0120210704700BF53
:1016E000002866D02DE9F041466A04464EB3BF2A71
:1016F00028BFBF2200F16C081546404619F044F996
:10170000002304F12C072C443846464984F86C30F9
:1017100019F02AFDB8B13846434919F025FD90B3B8
:101720003846424919F020FDF0B13846404919F0D9
:101730001BFD002843D038463E4919F015FD00280E
:1017400053D0BDE8F08101F0C1FB024661B34FF414
:101750007A7200231FF060FA024641463046BDE827
:10176000F0410023FEF7B6BF01F0B0FB0246A9BB73
:101770003148A0FB0232920941463046BDE8F041B3
:101780000023FFF7CBBA01F0A1FB024691B14FF461
:101790007A7200231FF040FA024641463046BDE807
:1017A000F0410023FFF7BCB92348A0FB02329209A5
:1017B000D3E770472048A0FB02329209EDE701F021
:1017C00085FB024611BB1C48A0FB02329209414630
:1017D0003046BDE8F0410023FFF784BB4FF47A7236
:1017E00000231FF019FA0246C6E701F06FFB02461C
:1017F00099B14FF47A7200231FF00EFA0246414667
:101800003046BDE8F0410023FFF704B84FF47A7288
:1018100000231FF001FA0246D9E70748A0FB023275
:101820009209ECE794130210180F0210200E021018
:10183000880E0210A0130210D34D621000295CD054
:1018400070B58E6A0C4682B0002E54D04B6A002BC5
:1018500051D0002A46D1D3E9183101252748B57067
:101860009847CDE900452A46254B2649206818F0BF
:10187000A3F8CDE900452A46214B2349206818F0FA
:101880009BF8CDE900452A461D4B2049206818F0F9
:1018900093F8CDE900452A46194B1D49206818F0F8
:1018A0008BF8CDE900452A46154B1A49206818F0F7
:1018B00083F8CDE900452A46114B1749206818F0F6
:1018C0007BF801952A46206814490D4B009418F0C6
:1018D00073F82346124A1349206802B0BDE87040ED
:1018E00018F0C2B90024D3E918210F48B47002B02F
:1018F000BDE87040104702B070BD7047B4130210CD
:101900002D19001094130210180F0210200E02104F
:10191000880E0210A0130210CC130210E413021060
:10192000E116001099190010FC13021039B130B102
:10193000436A23B11A6E12B1596E014810477047BD
:101940002014021022B3F0B51368144685B01BB101
:10195000936A0BB19B780BB905B0F0BD0D460646F6
:1019600016F0B8FF284619F0DDFC03942A4603461A
:10197000012520680024074F3146CDE90054029725
:101980009BB217F0B1FE05B0BDE8F04016F0AABF5B
:10199000704700BFDD16001048B110B53F22044665
:1019A0002C3019F029FD002384F86B3010BD7047EE
:1019B0006AB330B5536A144683B023B129B10A68BB
:1019C0002368626043B103B030BD1348D3E91821E6
:1019D00003B0BDE83040104718F052F92060B8B1AC
:1019E000254616F077FF009455F8080B40F25B721D
:1019F00001950A4B211D18F049F9054616F072FFB2
:101A0000002DE0D0636A0648D3E91821E0E770476B
:101A1000636A0448F8E700BF441402103D18001040
:101A2000941402106C1402102DE9F0430746ABB079
:101A3000E0B10C4600295BD000254FF00109DFF82A
:101A400058814FF496720D604D608D60CD604046B8
:101A5000294619F08BF884F8009012F067FC0646CE
:101A600038B1D7E918313D48984728462BB0BDE832
:101A7000F0833B4B83F8009012F004FC47F23053A4
:101A8000384A3949394812F009FC3B6E002833D1F5
:101A9000796E374884F8019098473C23354AC7F857
:101AA0006480C8F80820344AC8E90974FA65A8F8BF
:101AB000143016F00FFF4346304A314808F1040154
:101AC00007F000FB044616F00DFFD4B105340BD02F
:101AD0003B6E4BB1A0212A4B2A4A02A803F052FACE
:101AE000D7E9183102A8984701202BB0BDE8F08350
:101AF00008462BB0BDE8F0832348796E98473046FE
:101B0000B4E7D8F80030002BEED118F0B9F8C8F8D7
:101B10000000D0B116F0DEFE4146CDF8008051F84D
:101B2000080B40F25B720191184B043918F0AEF8C3
:101B3000044616F0D7FE002CD6D0D8F8243014482E
:101B4000D3E918219047484690E7D8F82430114847
:101B5000D3E918219047484688E700BFC014021017
:101B600090E8002004004000E0140210EC14021081
:101B7000201502103415021045190010B11900107B
:101B80003C1502104C150210F81402103D180010FC
:101B9000941402106C14021008390020D8B1D1B18D
:101BA00030B414460A78A2B18A7892B18A68CD68B6
:101BB000A21A63EB050CB2F5FA6F7CF1000208D3B0
:101BC000C56D426EC1E9024303482B4630BC034950
:101BD000184730BC70477047781502107015021016
:101BE00010B44FF480740C4B53F8202003EB8003A7
:101BF000C00082F0400200F1804003F5805C02F0FA
:101C0000C00200F5203003F54053CCF800204160BD
:101C10001C605DF8044B704704800340002915BF29
:101C20000C2104214FF0080C4FF0000C002A08BFD3
:101C30006146064B53F8202003EB80034A4003F52E
:101C4000805302F00C021A60704700BF048003400A
:101C5000022221B1044B904003441A607047034BA9
:101C6000904003441A60704704A0034004B003404E
:101C700070B44FF050460F4B36680F4D00F0070C14
:101C8000002E08BF2B46C0080C4C4FEA8C0C01FA02
:101C90000CF103EB80038C3044F8201022B170BCAF
:101CA00003F500531960704703F54053196070BC89
:101CB000704700BF9082024048820240008002408C
:101CC00070B54FF0504604460C4D336882B055F85D
:101CD0002300204208D10443152045F8234002B0D8
:101CE000BDE8704000F0DCB9CDE9001201F0CAFA9D
:101CF000DDE90012336855F82300ECE7F0E7002037
:101D000010B50446152000F0BFFA4FF05043044AC6
:101D1000196852F8213023EA040342F8213010BD3B
:101D2000F0E7002030B4002343EC440043EC4000D3
:101D300005254FF480740B4BC20053F8201003EBC1
:101D4000800081F0400102F1804303F5203301F06F
:101D5000C00200F5805100F540500A605D600460EB
:101D600030BC7047048003400FB400B583B0049CBE
:101D7000074803F0BFFB3CB105A92046019103F0E1
:101D800061F9044803F0B6FB012003F073F900BFCA
:101D90009015021034A90510EFF3108072B6064BAF
:101DA000D3E8CF1F01220029FAD1C3E8412F00292F
:101DB000F6D1BFF35F8F7047032500200023034A4D
:101DC000C2E88F3F80F31088704700BF03250020D2
:101DD00070B5EFF3108572B6134CD4E8CFCF01265F
:101DE000BCF1000FF9D1C4E84C6FBCF1000FF4D185
:101DF000BFF35F8F4FF0010C4FEAD10E01F00703E4
:101E00000CFA03F310F80EC01CEA030608D14CEAE2
:101E1000030300F80E30C4E88F6F85F3108870BD9F
:101E20001046FFF7A1FF00BF03250020F8B5EFF330
:101E3000108572B6234CD4E8CF7F0126002FFAD14B
:101E4000C4E8476F002FF6D1BFF35F8F9A4227D8BF
:101E50000126D70810F807E002F0070C06FA0CFC80
:101E60001EEA0C0F00EBD2070DD125E04FEAD20E8F
:101E700010F80EE002F0070C06FA0CFC1EEA0C0F3C
:101E800000EBD20718D001329342EFD24FF0FF306F
:101E90000023C4E88F3F85F31088984207DBF8BD24
:101EA0000023C4E88F3F85F310884FF0FF300029EE
:101EB000F5D00698FFF758FF4EEA0C0C104687F84D
:101EC00000C0E5E70325002000B5EFF3108E72B6E1
:101ED000104BD3E8CFCF0122BCF1000FF9D1C3E8FA
:101EE0004C2FBCF1000FF4D1BFF35F8F01224FEAFA
:101EF000D10C01F007018A4010F80C1021EA020110
:101F000000F80C100022C3E88F2F8EF310885DF8C4
:101F100004FB00BF03250020044A1078431CDBB2F9
:101F2000172B88BF10231370704700BF781600204E
:101F300010B5054C82B001461F23182200940348B7
:101F4000FFF774FF02B010BDA0150210402A002058
:101F50004FF0E022936843F000539360704700BF56
:101F60000021044B03F12002C3E88F1F0133934289
:101F7000FAD17047F82400204FF0E0234FF0803270
:101F8000C3F80024C3F80424C3F80824C3F80C24BD
:101F9000C3F81024C3F81424C3F81824C3F81C246D
:101FA000C3F82024C3F82424C3F82824C3F82C241D
:101FB000C3F8302462B67047012300F01F0293403B
:101FC000400941B1800000F1604000F56140C0F877
:101FD000803103607047024A203042F82030704759
:101FE00000E100E00123064A410952F8212000F0F7
:101FF0001F0003FA00F0104214BF1846002070477B
:1020000000E100E001224309044900F01F0002FA48
:1020100000F0403341F82300704700BF00E100E0CA
:10202000054A10309268054B52F82000C01A2F283C
:102030008CBF00200120704700ED00E07C160020DE
:10204000F8B50D46EFF3108772B6124ED6E8CF2FD3
:102050000123002AFAD1C6E8423F002AF6D1BFF395
:102060005F8F0D4B00F110049B680C4A53F824302D
:10207000934203D0994201D001F004F9064B9B68CA
:1020800043F82450BFF35F8F0023C6E88F3F87F3E8
:102090001088F8BD0125002000ED00E011010010BE
:1020A0002DE9F04F80468B46174683B0EFF310833F
:1020B00072B6DFF8D0A10093DAE8CF1F0123002920
:1020C000FAD1CAE8413F0029F6D1BFF35F8F664ECF
:1020D00096F90050002DC0F2A080644C05EB45033A
:1020E00004EB8300817908F11008317060499B008E
:1020F0008968994651F828E00646AEEB04012F297D
:102100004FEA450231D95B4B9E4540F0A2805A4BC5
:1021100009F10209A144043BA3EB0903C3F34A03F9
:102120006FEAC3434FF421416FEAD343154424F8C7
:10213000251004EB85056B804BF60153AB80FF2324
:1021400046F0010EEF71C5F808B0AB71484B9B68C3
:1021500043F828E0BFF35F8F0023CAE88F3F009B5E
:1021600083F3108803B0BDE8F08F2EF0010191F8E1
:1021700007C0BC452BD84FF42146E6523E4B09F12F
:1021800002062644043B09F104099B1BA1440E1FCF
:10219000C771A6EB0906394FC6F34A063E4386804F
:1021A000C3F34A03364E3B4343804AF6AA250B4607
:1021B0001B1B5B415D432D0DC0F808B0857140F0DD
:1021C000010E0E60C2E7C079B8422BD9614691F981
:1021D000063003EB430004EB8000002B8446F2DA68
:1021E0004BF6015001930B1D043EF61AC6F34A0646
:1021F0006FEAC6466FEAD64602EB050CDFF8809020
:10220000019B8D7104EB8C058E8044F82C90A88086
:10221000AB71EF71C5F808B098E701F033F896F9A3
:1022200000505AE788880193400501F1040315D452
:102230004FEA605C6FF007000CF1020CA0EB0900A4
:1022400003EB4C0C001B6044C0F34A0040F46040B8
:10225000CAE7019201F016F8019A58E700F5FF105D
:1022600000F5FF501F30E3E791E800207C160020C6
:1022700000ED00E011010010AC16002000E0FFFFAF
:1022800001488047012500202DE9F04F83B0EFF38E
:10229000108972B6704ED6E8CF2F0123002AFAD1EA
:1022A000C6E8423F002AF6D1BFF35F8F6B4B00F1C7
:1022B00010079B6853F82750694B9D4242D08D42CE
:1022C0004ED0684C2B1B2F2B3CD84FF0010A4FEA05
:1022D00050184FEA880808F1604808F56148D8F8B6
:1022E000003000F01F000AFA00FA0AEA0303C8F8F7
:1022F00080A00093BFF35F8FEFF30583DBB29B46B3
:1023000083BB25F0010EDEF808C0614500F099801E
:102310000B4661469C4603E081688C452CD096466E
:102320009EF9063003EB430004EB8000002B0246CD
:10233000F2DA63468B4259D0009BD3B1C8F880A132
:10234000C8F800A0454B9B6843F82750BFF35F8F48
:102350000023C6E88F3F89F3108803B0BDE8F08FF3
:102360001D46EFE79F42CCD0019100F08BFF019911
:10237000C7E7C8F880A0E5E790F90610002936DB2A
:1023800001EB410C04EB8C0CDCF808304800936046
:102390009CF80730D3719CF90630002B93713EDB1B
:1023A000BCF804305B0504D503F5FF1303F5FF53B8
:1023B0001F335B1503F1020C4FF0040E0C2313FBCB
:1023C00001E303EB4C036FF0070C2344ACEB020C6E
:1023D0006344C3F34A0343F460439380224B0844AD
:1023E0001A7804EB80041970A271A5E77246BBF15C
:1023F000000F17D1FF238EF806304BF60153AEF8CD
:10240000043019484AF6AA2390F800C01146091B67
:1024100049414B431B0D82F806C003708CE74BF615
:102420000153DAE7114B12489B1A083BC3F30A31F8
:102430006FEA01516FEA115140EA5303D380918052
:102440007AE79EF906107246002999DABBF1000F6F
:10245000E8D1034DD5E700BF0125002000ED00E0E5
:10246000110100107C16002091E80020B616002013
:1024700000F8FFFF4FF0FF0C20F0030303F160436F
:1024800003F5644300F003001A68C0000CFA00FC76
:1024900022EA0C0281400A431A607047F0B5EFF35C
:1024A0000585EDB2EFF3108C72B62649D1E8CF2F37
:1024B0000123002AFAD1C1E8423F002AF6D1BFF336
:1024C0005F8F214E40F0010EB4684AF6AA2354F8FB
:1024D00025701E4A0446A41A644163431B0D7745C8
:1024E0005BB21BD092F906409C421CD092F912407C
:1024F0009C4223D092F91E409C4221D092F92A405E
:102500009C4208BF03240FD0114A00241578137091
:102510008571C1E88F4F8CF31088F0BDB2680D4C07
:1025200042F82540F0E7002404EB440402EB840267
:10253000FF2494714BF601549480E5E70124F3E7FE
:102540000224F1E70125002000ED00E07C160020C8
:1025500091E800201101001001460248C1F1330149
:10256000FFF7B2BC9DE8002010B5074C82B00146D1
:102570000523002200940548FFF758FC0028A8BF57
:10258000C0F1330002B010BDBC1502109DE8002060
:1025900070B5044616460D46FFF7BEFC01462046C0
:1025A00000F006F8E680A580BFF35F8F70BD00BF26
:1025B000014B194401607047F8240020F8B5124D12
:1025C000124EB5421FD22C462368FF277BB1FFF77E
:1025D000A3FC01462846FFF7EBFFA780BFF35F8F00
:1025E0000834B4420FD223682546002BEFD1FFF701
:1025F00093FC01462846FFF7DBFF2771BFF35F8F8F
:102600000834B442EFD3F8BD282100203021002047
:1026100010B50446FFF780FC01462046FFF7C8FFCF
:10262000FF232371BFF35F8F10BD00BF10B50446B9
:10263000FFF772FC01462046FFF7BAFFFF23A38095
:10264000BFF35F8F10BD00BF10B504460120FFF738
:102650006FFC034B18442060BFF35F8F10BD00BFB9
:10266000F8240020024B19440160BFF35F8F7047CC
:10267000F82400200D4B1A68EFF3108172B6D2E8EF
:10268000CFCF0120BCF1000FF9D1C2E84C0FBCF153
:10269000000FF4D1BFF35F8F00221B68C3E88F2FB8
:1026A00081F3108840BF00200021704710E800200F
:1026B0002DE9F04F2DED028B85B0EFF30583DBB2F2
:1026C000103B9A0818BF01224FF0010103F00300EC
:1026D000AD4B00EB82020CBFAC4FAD4F53F8226004
:1026E00001FA00F207F541539FEDA58BB04601902A
:1026F00000925A6035E0B8F804301B0440F1928033
:1027000098F80630002B40F0DF80B8F90820002A46
:10271000C0F22581D8F8143002EB420203EBC2026A
:10272000D2E90245B5F1FF3F08BFB4F1FF3F0DD03C
:10273000019B07EB8301BB6A0A69D21AE31A934231
:1027400003D33B6A009A134200D10C61384600F073
:10275000B5FB201A65EB0105012875F1000380F235
:10276000FE80B8F90840009B002CFB63C3DBD8F85F
:1027700014A004EB440B38460AEBCB05D5E90296CE
:1027800000F09CFB484561EB06010029B3DB002EFD
:10279000C0F2C3802B697F4A934200F0FD806A88B3
:1027A000B8F9080092B242EA0040696998470246C7
:1027B0000B4652EA030100F0B080002B80F2D58076
:1027C000B9EB020066EB0303C5E902033AF93B509B
:1027D000002D90DBD8F814C005EB45010CEBC101CE
:1027E0008A68821ACA6863EB0202002A83DBA8F8AF
:1027F000085007E09568451BD56863EB0505002D7B
:1028000008DB1146B1F9006006EB4602002E0CEB26
:10281000C202EFDA2AF83B600C80B8F804301B04DF
:102820003FF56EAFD8F81030EFF3108272B6D3E8F0
:10283000CF0F01210028FAD1C3E8401F0028F6D1AC
:10284000BFF35F8F4FF6FF70B8F804900023D8F8FD
:1028500010100FFA89F9A8F80400C1E88F3F82F33D
:1028600010889945FFF64CAFBA46D8F8145008F1D5
:10287000080B09EB490E05EBCE03D3E90267B8F963
:102880000830DC46002B05DA0FE035F93430844699
:10289000002B0ADB03EB430405EBC400D0E9021272
:1028A000711A67EB0202002AEFDAACF8009035F9F2
:1028B0003E9025F83E30B9F1000FDADA98F806308C
:1028C0005746002B3FF421AF002388F80630B8F9B3
:1028D000083008F1080C5E1C41D01A46D8F81440A4
:1028E00003E08446591C3FF412AF03EB430104EBB1
:1028F000C10045881E462D0434F93130F1D5964289
:1029000080ED028BEED0ACF80030B8F8082024F847
:1029100031203246A8F80860E4E73AF83B30A8F8DE
:102920000830D8F81030EFF3108272B6D3E8CF0F2A
:1029300001210028FAD1C3E8401F0028F6D1BFF3D7
:102940005F8FB8F80230D8F810102AF83B30002317
:10295000A8F80240C1E88F3F82F31088CBE640BF61
:1029600005B0BDEC028BBDE8F08F3846CDE90223FF
:1029700000F0A4FA029A039B801843EB010323E7BB
:10298000FFFFFFFFFFFFFFFF14D8002000000B40F8
:1029900000800B40B12600106B6918461A6902933B
:1029A00090470028B9D0029BD3E9002301E700BF7C
:1029B0002DE9F84F364C25692DB1BDE8F84F0A21B5
:1029C0003448FFF7F5BDDFF8E480032603214046D5
:1029D00000F062FAC4F80C80FFF79EFA4FF0504CFA
:1029E0002D4B26701844DCF800300F2163706369AA
:1029F00061801D834FF00405A3F878504FF0050562
:102A0000A3F890504FF00605A3F8A8504FF0070523
:102A10000E21206108274FF6FF724FF00A0EA3F82F
:102A2000C0504FF001094FF00C0C4FF0020B4FF06B
:102A3000090A0D204FF00B05A3F868111749A28071
:102A4000A3F808E1A160A3F848B0A3F8F0A0A3F8A8
:102A50002051A3F838C1A3F85001A3F83090A3F88F
:102A60006060A3F8D8701A800D4B3046C8F820700B
:102A70000C49DC60FFF7E4FA49463046FFF79CFA60
:102A8000094B0A211F600348BDE8F84FFFF790BDCE
:102A9000C416002010E80020F8240020FFFF1000DA
:102AA00014D80020B126001040200B4000000B403D
:102AB00000487047C41600202DE9F0419DF82050D1
:102AC000044617461E4635B900F000FA874266EB09
:102AD0000101002957DB2169EFF3108072B6D1E8BC
:102AE000CF2F0123002AFAD1C1E8423F002AF6D1B4
:102AF000BFF35F8FB4F90220D4F814C002EB420197
:102B0000002A4FEAC10E0CEBC10102DB3CF80E308B
:102B100063804FF000082369C3E88F8F80F310882B
:102B2000424533DB4888069B0130C0F30E00012884
:102B300038BF01200B61079B48804B61C1E90276D9
:102B400040EA02402369EFF3108172B6D3E8CF6FF9
:102B50000125002EFAD1C3E8465F002EF6D1BFF35F
:102B60005F8FA3882CF80E30A2802369C3E88F8F73
:102B700081F310880122E368217803F501538A402C
:102B80005A60BDE8F0812846BDE8F0814FF0FF3083
:102B9000F7E700BF0146F0B50069EFF3108772B6A2
:102BA000D0E8CF5F0124002DFAD1C0E8454F002DB9
:102BB000F6D1BFF35F8FB1F902E04C690EEB4E0C1A
:102BC0004FEACC06BEF1000FA8BFA05B4FF0000596
:102BD000A8BF488004EBCC0C0869C0E88F5F87F37E
:102BE0001088AE4535DBBCF80200CCE90223013089
:102BF000C0F30E00012838BF0120059BACF802008D
:102C0000CCF81030069B40EA0E40CCF814300B692B
:102C1000EFF3108272B6D3E8CFCF0127BCF1000FDB
:102C2000F9D1C3E84C7FBCF1000FF4D1BFF35F8F43
:102C30008B88A353A1F804E00B69C3E88F5F82F38C
:102C400010880122CB68097803F501538A405A6045
:102C5000F0BD4FF0FF30F0BD4289B2EB214F38DDBF
:102C600042690B1403EB430310B502EBC303046981
:102C7000EFF3108C72B6D4E8CFEF0122BEF1000F53
:102C8000F9D1C4E84E2FBEF1000FF4D1BFF35F8F2E
:102C90005A8889B292B28A4207D000230269C2E8F8
:102CA0008F3F8CF31088184610BD42F400425A80C2
:102CB0000123002201698371C1E88F2F8CF31088F2
:102CC000C268017802F5015203FA01F11846516019
:102CD00010BD0020704700BF407870472DE9F041DB
:102CE000861F41F1FF35B04271EB050338BF002666
:102CF00082B038BF354604460F4600F0E7F8301A78
:102D000065EB0101012871F1000306DA204639461E
:102D100002B0BDE8F04100F009B900F0D7F88642F2
:102D200065EB010100290ADB0021174B32460093B5
:102D300016482B460191FFF72DFF0028E6DB4FF0E8
:102D4000000C1348134A436A9D4204D8816AB14279
:102D5000DCD29D42DAD11368EFF3108172B6D3E86A
:102D6000CF8F5FF0010EB8F1000FF8D1C3E848EF44
:102D7000B8F1000FF3D1BFF35F8F1368C3E88FCFB3
:102D800081F3108820BFDEE775260010C4160020EE
:102D900000000B4010E8002010B5044600F096F843
:102DA0004FF47A73E4FB0301BDE810400029BCBF77
:102DB0004FF0FF306FF00041FFF790BF2DE9F04377
:102DC00007460E4683B0EFF30584E4B274B12F4B8F
:102DD000586A884203D2002003B0BDE8F0839B6AA2
:102DE000BB4248D3012003B0BDE8F083284DD5F89D
:102DF0000C9095F80080484600F060F808F104084F
:102E000059F828301B1A381A66EB0101984271F103
:102E100000030DDB20BF1D4B586A8642DBD89B6A3E
:102E2000BB42DFD2301A18BF012003B0BDE8F083E7
:102E300000F04CF8874266EB0101002913DB154BCB
:102E40002846CDE900343A463346FFF7A3FE011E7B
:102E500009DD0E4B5A6A964215D89B6ABB4210D3C5
:102E60000B48FFF7F9FE094B586A8642B3D89B6AB4
:102E7000BB42B7D2D6E7401A18BF012003B0BDE865
:102E8000F0839642ECD120BFEAE700BF00000B4080
:102E9000C41600207526001010B4054B054C064AD8
:102EA000A04214BF1846581C5DF8044BFEF790BFB3
:102EB000442A002000800B40E0150210416A0B46B6
:102EC000826A416A8B42FAD110467047034B596AB5
:102ED0000A46986A596A9142FAD1704700000B403D
:102EE00010B4114A536A9C46946A536A6345FAD1F6
:102EF00000194B414FF0000228BF012212B14FF0E0
:102F0000FF33184608494A6A9A42FCD39A4207D1CD
:102F1000054A02E0516A994202D1916A8142F9D38D
:102F20005DF8044B704700BF00000B40074A536A2E
:102F30009942FCD8994207D1044B02E05A6A914267
:102F400002D19A6A8242F9D3704700BF00000B4059
:102F500000EB400C4FEA8C0C0CF1804C0CF5803CE3
:102F600070B5DCF80440A0F1040EB4F5803F38BF22
:102F70004FF480345FFA8EFE38BFCCF80440BEF1C7
:102F8000010F29D94FF40066244D0CF540542660FA
:102F900055F82060BEB9DCF800400CF5805684EA94
:102FA000421202F0E002BEF1010F326028D94FF464
:102FB000006145F820304FF480330CF50052116069
:102FC000CCF8043070BD6C69B4FBF6F4013404EB4A
:102FD0004404033CFDD2DEE70129D3D103250CF5DF
:102FE00040542560DCF80840E407FBD5DCF80040DD
:102FF0000CF5805684EA421202F0E002074D32607E
:103000000122DCF800404C4004F00304346002FA72
:1030100001F1DCF808200A42FBD0C8E74C2A002066
:10302000014B53F8200070474C2A002070B4039CD9
:103030000568240344EA03431B4C002DB4FBF1F460
:10304000B2FBF4F21FDB194D194CA8420CBF4FF430
:1030500000454FF48045174E256004F580542560E7
:10306000B46835EA0404FBD1212500F5405404344A
:103070000160826025600268002AFCDA0822C360D1
:10308000226070BC7047046804F03F048C42DAD1BF
:103090008468C4F30B049442D5D1C46804F4EE24CC
:1030A0009C42D0D1EDE700BF001BB7000080054077
:1030B000002002400000024030B44FF080441D4B1D
:1030C0001C60E0B11C4CA3F54053DC611B4C40F08C
:1030D000010044401C62596298624FF080454FF0F5
:1030E000E061144B1648174C1D60846019604AB9A2
:1030F00030BC4FF00042A3F580531A607047124B6A
:10310000D861EAE74FF47A7303FB02F2B2F1807FF1
:1031100009D20E4B1A604FF0804130BC0A480C4B6C
:103120004260196070476FF07F4308491A460B6090
:10313000F1E700BF00B00D40D3C007B02D3FF84FFE
:1031400000A00140F3FFFF0100800D406C3E002015
:1031500000A00D40012300EB4000800000F1804002
:1031600000F5841041600360704700BF10B5002473
:1031700082B00B46E48A002141E800F1CDE900036A
:103180004B0254BF1021042144F25220A047DDE934
:10319000002386460A214FF48170F44602B0BDE850
:1031A000104060470023DB8A002242E800F252020E
:1031B00001D4102118470421184700BF08B50B4659
:1031C000011E02DB22B143F030031846FFF7CEFFA9
:1031D00043F02003F9E700BF002310B5DA8A044664
:1031E00086B0002343E800F35B0254BF10210421A2
:1031F00045F24730904710220346052101A8984721
:10320000052802D0002006B010BD0DF1080CBCE866
:103210000F00206001206160A260E36006B010BD75
:10322000034AD2F82838002BFBD0BFF35F8F7047DA
:1032300000000E400021044B044ABFF35F8F43F8A7
:10324000041B9342F9D170470C080E402C080E4025
:1032500010B44FF48D704FF42A64064A064B0749A8
:103260001460D06019605368002BFCDA5DF8044BE1
:10327000704700BF0080044000A0044000B0FA0086
:10328000704700BF08B50148FEF76EFD0416021036
:1032900038B5054C054DAC4204D254F8043B984770
:1032A000AC42FAD338BD00BF700C0210B00C021053
:1032B00010B40748074C084B084A094904601A60D3
:1032C0008B6832EA0303FBD15DF8044B704700BF03
:1032D000002002407F3BEFEF00300240F6FFF30397
:1032E00000000240044BDB6CB3F5004F03D14FF4F8
:1032F0008022024BDA647047000011500020115008
:103300004FF0E022044BD2F8881D0B43C2F8883DF1
:1033100010EE3004704700BF030330006FF06041CF
:10332000044B054A19609368DB4333F06043FAD1DC
:10333000704700BF003002400000024010B545F267
:103340005320FFF72FFFBDE8104003460420184725
:1033500010B545F25320FFF725FFBDE810400346A6
:1033600001201847FEF7FCBD70B52E492E4C2F4E9C
:10337000641AA510442D2A4628BF442230469200E4
:1033800017F002FBB4F5867F47D805F1010CBCF1BC
:10339000440FC5F143013444C5F1440088BF012006
:1033A00005296346224AC4F3800418D9BCF1440FAE
:1033B00015D8ACB346F82520001B2C4406EB84033B
:1033C000410803EBC101C3E9002208339942FAD155
:1033D00020F0010398420CEB03051ED06B1C442B1C
:1033E00046F8252019D0422D46F8232005F1020386
:1033F00013D0412D46F8232005F103030DD0402DB5
:1034000046F8232005F1040307D03F2D46F823207A
:1034100005F1050301D046F82320064B9E6070BDE0
:10342000AC46C9E7000000101001001000000020A9
:103430001101001000ED00E00023F0B52B4C83B02B
:10344000C4F88430FFF704FF0122294BDA63636C70
:10345000012BFCD10321264A244B11639D6B012DC6
:10346000FCD1052302271E4600242946214A224872
:103470000097FFF7DBFD29463346204A2048009697
:10348000FFF7D4FD3946224604201E4BFFF760FDAE
:103490002946224630461C4BFFF75AFD224608209B
:1034A00021461A4BFFF754FD224609202146174BAF
:1034B000FFF74EFD224606202146134BFFF748FD3D
:1034C000114B224607202146FFF742FD0420FFF75B
:1034D000A7FD0F4DA5FB0035AD0CE0B22946013428
:1034E000FFF738FE062CF8D103B0F0BD0000014014
:1034F00000300140002F685900000540008C8647CD
:1035000000800540001BB70080D1F008006CDC0291
:1035100083DE1B4386B003B451FC0804CDE90201ED
:1035200051FC0904CDE9040151EC0A04CDE906017E
:1035300003BCF047BDE800504EEC00C4BDE80050AD
:103540004EEC01C4BDE800504EEC02C400BD0000CA
:1035500000B5FFF7DFFF02E010FE30F4F8D441ECD5
:10356000100443EC112400EE010410EE010480EE7F
:10357000200451EC1004704700B5FFF7CBFF02E0C8
:1035800010FE30F4F8D441EC100443EC112400EEAA
:10359000010410EE210480EE200451EC3004704749
:1035A00000B5FFF7B7FF02E010FE30F4F8D410B515
:1035B00041EC100443EC112451EC040453EC0524B9
:1035C000A0FB024C5FF0000EE0FB03CEE1FB02CE5D
:1035D0004CEC20440024E1FB03E444EC30E480EEB6
:1035E000200451EC5004BDE81040704700B5FFF7CF
:1035F00091FF02E010FE30F4F8D441EC100443ECEB
:10360000112451EC2104A0FB01126FEA820252FB4B
:10361000100052FB12F252FB1000A0EBD07C53ECD6
:1036200004245CFB13F153EC1524A1FB022001FBE5
:10363000030053EC4424A2EB000050FB1CF24FEAC1
:10364000111312EB017043EBE27140EA515020EA92
:10365000915020F0070053EC7524A0FB023C53EC82
:10366000752400FB03CC01FB02CC53EC0424ACEB2F
:10367000824C40EA5C70A0F1010041EC400480EE15
:10368000200451EC7004704700B5FFF743FF02E0DF
:1036900010FE30F4F8D441EC100480EE220410EE59
:1036A000B204704700B5FFF735FF02E010FE30F4BA
:1036B000F8D440EC700400EE010410EE210480EE1A
:1036C000200451EC3004704700B5FFF723FF02E0FF
:1036D00010FE30F4F8D440EC600400EE010410EE6B
:1036E000210480EE200451EC3004704700B5FFF750
:1036F00011FF02E010FE30F4F8D441EC800400EE3B
:10370000010410EE010480EE400410EE1304704733
:1037100000B5FFF7FFFE02E010FE30F4F8D441ECF4
:10372000800400EE010410EE010480EE400410EE6F
:103730003304704700B5FFF7EDFE02E010FE30F4F1
:10374000F8D441EC100443EC112400EE010410EE17
:103750003004C0F30070704700B5FFF7DBFE02E0F5
:1037600010FE30F4F8D441EC100443EC112400EEC8
:10377000010410EE3004C0F38070704700B5FFF70D
:10378000C9FE02E010FE30F4F8D443EC102441EC02
:10379000110400EE010410EE30F48CBF0120002073
:1037A000704700BF00B5FFF7B5FE02E010FE30F431
:1037B000F8D443EC102441EC110400EE010410EEA7
:1037C00030F42CBF01200020704700BF00B5FFF788
:1037D000A1FE02E010FE30F4F8D441EC100443ECFA
:1037E000112400EE010410EE30F42CBF0120002063
:1037F000704700BF00B5FFF78DFE02E010FE30F409
:10380000F8D441EC100443EC112400EE010410EE56
:1038100030F48CBF01200020704700BF0022002937
:1038200050DA404261EB4101C9B1B1FA81F30B3B7F
:1038300017D4D3F1200C30FA0CFC9840994051EA8F
:103840000C011A44524202F2324201EB025141F0A1
:10385000004140F2FE739A4238BF704721E01146A2
:103860007EE003F1210310FA03FCA3F1010301FA46
:1038700003FCC3F1200320FA03F021FA03F140EA2C
:103880000C00A3EB020202F2324214D050F100000D
:1038900041EB025141F0004140F2FE739A4238BFC1
:1038A00070474FF00001A8BFC7F6F0714FF000005D
:1038B000704700217047EBD350F1000020F0010069
:1038C000E6E70022B9B1B1FA81F30B3B16D4D3F18C
:1038D000200C30FA0CFC9840994051EA0C011A4433
:1038E000524202F2324201EB025140F2FE739A421E
:1038F00038BF704720E0114600F066B803F121039D
:1039000010FA03FCA3F1010301FA03FCC3F1200345
:1039100020FA03F021FA03F140EA0C00A3EB0202C3
:1039200002F2324212D050F1000041EB025140F25B
:10393000FE739A4238BF70474FF00001A8BFC7F628
:10394000F0714FF00000704700217047EDD350F147
:10395000000020F00100E8E7002880F235804042B6
:10396000B0FA80F30B3B11D4984001EB03025242B2
:1039700002F2124200EB025141F000414FF0000010
:1039800040F2FE739A4238BF704713E0C3F1000360
:1039900030FA03FCC3F120029040A3EB010202F2D3
:1039A00012420CEB025141F0004140F2FE739A4288
:1039B00038BF70474FF00041A8BFCFF6F0714FF00D
:1039C000000070470021704760B3B0FA80F30B3BF2
:1039D0000FD4984001EB0302524202F2124200EB74
:1039E00002514FF0000040F2FE739A4238BF704718
:1039F00010E05B4230FA03FCC3F120029040A3EBDD
:103A0000010202F212420CEB025140F2FE739A42A2
:103A100038BF70474FF00001A8BFC7F6F0714FF0F4
:103A200000007047002170470022A2F232425FEA94
:103A3000215CACF10103A1EB03515B0513F5800F91
:103A400032D212EB535210D40B2A36DA9140D2F113
:103A5000200330FA03F319439040BCF1000FA8BFD4
:103A60007047404261EB4101704720320EDD01FAA0
:103A700002F3D2F12002D140D0401843BCF1000F34
:103A8000A8BF7047404261EB41017047524282F348
:103A9000050231FA02F00021BCF1000FA8BF704707
:103AA000404261EB4101704702D000200021704785
:103AB00050EA013118BF4FF0000C6FF0004101EBEC
:103AC000DC716FEAEC7070479A4238BF88547047D7
:103AD000704700BF2DE9F84F9A460D9B17469A078D
:103AE00006468B46DDF8288011D1DDE90B32934282
:103AF0000DD213463C460B9A9D1A3D44224653462E
:103B0000594620200134B047AC42F7D100E03D4691
:103B10000B9B73B108EB030404EB0509A9EB04024A
:103B200014F8010D53465946B0474445F6D10B9B56
:103B30001D440D9B9B070ED50C9BEF1BBB420AD966
:103B40001C462A465346594620200137B047BC42FE
:103B500005F10105F5D82846BDE8F88F2DE9F04FAD
:103B60000F9EDDF824E016F0020F0A9C9DF82C90C1
:103B70000E9DDDE90C872CD1002D74D1BC4206F0DE
:103B8000010B80F0CB801F2C88BF202400F2C68060
:103B900004F1FF3C4FF0300AF44401E0202C04D043
:103BA0000134A7420CF801AFF8D8BBF1000F10D0D8
:103BB000A5420ED9202C2DD004F1FF3C4FF0300A45
:103BC000F44401E0202C25D00134AC420CF801AFC4
:103BD000F8D116F0100F38D016F4806F26D10CBB38
:103BE000B8F1100F7FD0B8F1020F00F092803024AE
:103BF0008EF800400124B9F1000F2BD02D270EF8CC
:103C000004700134CDE90B56CDE909E4BDE8F04F6D
:103C1000FFF760BF16F0100F4FF02004F2D016F43B
:103C2000806F03D1A74249D0A54247D0B8F1100F09
:103C30004ED0B8F1020F39D0202CE3D04FF0300C29
:103C40000EEB040787F800C00134202CDAD0B9F15C
:103C5000000FD3D177071DD43707D3D520270EF80F
:103C600004700134CEE716F0010B0DD0B9F1000F4E
:103C700022D116F00C0F1FD1BC4299D21F2C87D92C
:103C8000202DC7D82024A4E7BC42A2D21F2C7FF647
:103C90007FAFF7E72B270EF804700134CDE90B5600
:103CA000CDE909E4BDE8F04FFFF714BF202CA9D0FF
:103CB0000EEB0407013440E0013DDDE7671E8FD0C5
:103CC000B8F1100F2FD0B8F1020F35D03C46B5E750
:103CD000B7060FD4202C95D00EEB040C01347827B6
:103CE0008CF80070A8E7B4060ED478248EF8004053
:103CF0000124A3E7202C85D04FF0580C0EEB0407CD
:103D000087F800C0013497E758248EF8004001245A
:103D100094E762248EF8004001248FE7BBF1000F86
:103D200008BF002555E716F0200FA4F10204E3D1E7
:103D30000EEB040C3C46D2E777444FF0620C87F858
:103D400000C079E700B9704701F096BB10B1D1E926
:103D500000311847704700BF2DE9F04F2DED048B5F
:103D60009BB02A9CDDE9288909942B9C83461D463B
:103D70000D940C920C4642464B4640464946DDF8AF
:103D8000B0A0FFF7DBFC002840F0D6804046494653
:103D90004FF0FF32744BFFF731FD002840F0CC802C
:103DA000404649464FF0FF326FF48013FFF7EAFCBC
:103DB000002840F0C1804046494600220023FFF71A
:103DC000E1FC002840F0C181CDE90A89DDE90A2340
:103DD0001F461AF4806316461193099B08BF0623F9
:103DE000099356EA070340F0C3801AF4006E00F00E
:103DF000A4819FED5B7B00238DED0E7B1093099BCF
:103E0000109A00269342D2BF0023A3EB020E0EF1BC
:103E1000FF3309934AF4806A10960D9BB34294BF16
:103E200000279F1B1AF00203119302D0002E18BF27
:103E30000027109B3BB1DDE90A01DDE90E23FFF706
:103E4000D9FBCDE90A014046494600220023FFF78D
:103E500099FC30B1DDE90A01024601F10043CDE9E8
:103E60000A239DED0A7B099B8DED007B02932AF4CA
:103E70000063049321462B4658460C9A039700F0A2
:103E80009BF98046002E51D01AF0200F424614BFF5
:103E9000452065202B462146D847109A0DF1480C45
:103EA00082EAE273A3EBE2734FEAD27E0027624616
:103EB0001846DFF8B89008F1010806F1FF3A01E072
:103EC000202F0FD00646A9FB0031C90801EB810362
:103ED000A0EB43033033092E084607F1010702F82F
:103EE000013BEDD80523002006930A234246CDE985
:103EF000033021462B465846CDE9017ECDF814A06B
:103F0000CDF800C0FFF72AFE119B804673B10C9BD1
:103F10000D9FC61AB74209D942462B46214620209A
:103F20000136D847B74208F10108F5D840461BB022
:103F3000BDEC048BBDE8F08F0D9B21462B935846BA
:103F40002B46099C0C9ACDE92889CDF8B0A02A947B
:103F50001BB0BDEC048BBDE8F04F00F02DB900BFE5
:103F60000000000000000000FFFFEF7FCDCCCCCCB4
:103F7000C7F30A50A0F2FF30FFF798FB8AA3D3E9FA
:103F80000023FFF711FB8AA3D3E90023FFF7E4FA2C
:103F9000C7F3130341EC180B43F07F513046002266
:103FA0007B4B41F44011FFF7EBFA6BA3D3E90023FD
:103FB000FFF7FAFA02460B4651EC180BFFF7CCFA62
:103FC000FFF798FB1090FFF771FB65A3D3E900237F
:103FD00006460F46FFF7E8FA00226E4BFFF7BCFAE1
:103FE000FFF788FB0346394630460E935EA3D3E9BC
:103FF0000023FFF7D9FA06460E980F46FFF756FB47
:104000005BA3D3E90023FFF7CFFA02460B46304605
:104010003946FFF7B5FA02460B4606460F46FFF74C
:10402000C3FA324641EC180B3B4630463946FFF79F
:1040300093FA002241EC190B574B51EC180BFFF788
:10404000D9FA0022554BFFF787FA02460B4651EC8E
:10405000180BFFF7CFFA0022514BFFF77DFA02460B
:104060000B4651EC180BFFF7C5FA32463B460646A5
:104070000F4600204FF08041FFF782FA02460B46C0
:1040800030463946FFF768FA02460B4651EC190BE9
:10409000FFF7B0FA0022434BFFF75EFA0E9B0022B7
:1040A00003F2FF363305FFF77FFA06460F46DDE9D8
:1040B0000A0132463B46CDE90E67FFF763FB60BB62
:1040C00031463A46109B6333C72B34BF042605267E
:1040D0001AF4006F3FF4A1AE51EA02033FF48FAE31
:1040E000DDE90A0124A3D3E90023FFF773FB48B1FC
:1040F000DDE90A0122A3D3E90023FFF743FB0028EF
:104100007FF47DAE099B002B3FF487AE119A002A05
:104110003FF483AE013B09937FE6109B0022013BF5
:10412000109330461D4B3946FFF764FA0B460246A2
:104130000146CDE90E231A46C4E79FED137B042602
:104140008DED0E7BCDF840E067E609F10043CDF838
:1041500028800B933AE600BF61436F63A787D23F85
:1041600071A379094F930A401655B5BBB16B024054
:10417000EF39FAFE422EE63F2D431CEBE2361A3FA2
:104180000000000080842E410000000000000000BC
:104190000000F83F0000E03F00002C4000002440F9
:1041A000000018400000F03FFB799F501344D33FBC
:1041B000B3C8608B288AC63F2DE9F04F2DED028BE6
:1041C00095B0DDE922450695249DDDE92067CDE91E
:1041D0000701CDE90923304632463B46394605956D
:1041E000FFF7ACFA002840F0C481304639464FF062
:1041F000FF326FF48013FFF7C5FA002840F00D81FD
:10420000304639464FF0FF32BF4BFFF7F7FA002830
:1042100040F0DD80B8A3D3E9002330463946FFF7EC
:10422000EDFA002840F0C180B5A3D3E90023304661
:104230003946FFF7A7FA002840F0B78030463946E4
:1042400000220023FFF79EFA002840F0DA802B4678
:104250000B9013F4806F08BF06243021A2460CABEC
:10426000A4F1200206E00AF1FF3A524503F8011BCF
:1042700000F03181BAF1090FA4EB0A05F3D83946F1
:104280003046FFF737FAA14B044603EBCA0393ED20
:10429000008BFFF70BFA02460B4630463946FFF714
:1042A0006FF953EC182BFFF77FF989468046FFF72B
:1042B00033FA8346FFF70CFA02460B46404649465E
:1042C000FFF75EF90022924B80468946FFF796FA87
:1042D000002800F0F1800BF1010B5846FFF7F8F9C8
:1042E00002460B4651EC180BFFF760FA10B14FF085
:1042F000000B0134BAF1000F40F09A802046FFF71E
:10430000D5F902460B4630463946FFF739F9002207
:104310007F4B06460F46FFF735FA40B9304639461F
:1043200000227B4BFFF76AFA002800F016816A1E14
:104330000CAB78491A44202D4FEAE47300F09380C7
:1043400081FB0460C3EBA00303EB8300A4EB4004F8
:1043500004F1300001351C4602F8010F002BEAD1B0
:10436000059B03F00303012B00F08380202D0AD06E
:104370000B9B002B00F0B1802D2205F150036B4404
:1043800003F8202C0135059B0CAC0393069B00948D
:10439000CDE90153DDE90701DDE90923FFF79AFBC8
:1043A00015B0BDEC028BBDE8F08F059BCDE9206711
:1043B000DDE907012493069B22942393DDE9092379
:1043C00015B0BDEC028BBDE8F04FFFF7C5BC05F0A2
:1043D00004042395504D002C504C18BF2C46DDE9A9
:1043E000070120940CBF03240424069B2293DDE9DB
:1043F0000923219415B0BDEC028BBDE8F04FFFF707
:1044000069BB01213B4632460B9100200021FFF79A
:10441000B7F82B4606460F461BE7069C23952294C9
:104420000424DDE90923DDE907013D4D2095E0E79E
:10443000681E0CAB3B4F18440FE0A7FB0B32D208B1
:1044400002EB8203ABEB43033033BBF1090F00F8FF
:10445000013F69D9B24693460D46202D0AF1FF3639
:1044600005F10101E9D1059B202503F00303012B90
:1044700089D1069B002B3FF479AF0B9B1BB9059BA1
:1044800013F00C0F02D0069B013B0693069BAB4238
:104490007FF66CAF202D0DD030226B1E0DEB02018C
:1044A0000B44069901358D4203F8012F3FF45EAFAE
:1044B000202DF7D1202566E7404649460022144BBF
:1044C000FFF760F900287FF415AFBBF1000F4BD167
:1044D0000BF1010B0EE72025D1E6059B5A0741D4CD
:1044E0001B077FF550AF202205F1300313446B44C6
:1044F00003F8202C013546E70000000065CDCD41D2
:104500000000000065CDCDC1FFFFEF7FB81602109F
:104510000000E03F67666666A4160210A01602104F
:10452000B0160210CDCCCCCC20299CD05EB30CAB05
:104530005A1930200D460135202D02F8010F92D076
:10454000EB430B4413EB0A0FF5D12E2205F1500378
:104550006B4403F8202C0135E9E6E1077FF5E7AE6F
:104560000134E4E62B2208E71BF0010F3FF4C2AE52
:10457000AEE7069C23952294044D0324DDE909232C
:10458000DDE9070152E70D46DFE700BFAC16021078
:104590002DE9F04F9BB0249C844D0994844C0F1E50
:1045A00018BF834625601878824D904608BFAB46F9
:1045B000002800F0C4821C464FF0000A0AE0524670
:1045C00043463946D8470AF1010A013420780028C9
:1045D00000F0C9802528F2D10021631C1C4613F885
:1045E000010BA0F12002102A0AD8DFE802F03C09F2
:1045F0000939090909090909093609330909300086
:10460000A0F13003092B40F290802A2800F0B980F5
:1046100000252E2800F0988000230A93A0F168035B
:10462000122B27D8DFE813F01F0126001A012600FD
:104630002701260026002600260026002600260048
:10464000220026002600260026002600220041F037
:104650000101C3E741F00201C0E741F00401BDE7F9
:1046600041F01001BAE741F00801B7E7607841F482
:1046700080710134A0F12503532B00F28E80DFE816
:1046800013F01C018C008C008C008C008C008C00C2
:104690008C008C008C008C008C008C008C008C00BA
:1046A0008C008C008C008C008C008C008C008C00AA
:1046B0008C008C008C008C008C008C008C008C009A
:1046C0008C00C5010201C5018C008C008C008C009F
:1046D0008C008C008C008C008C008C008C008C007A
:1046E0008C008C008C008C009B008C008C008C005B
:1046F0008C008C008C008C008C008C009B008E0148
:104700009B00C5010201C5018C009B008C008C0040
:104710008C008C008C009B006E018C008C002601AC
:104720008C009B008C008C009B00002505EB850510
:1047300000EB450514F8010F303DA0F13003092BC3
:10474000F4D92E287FF468AF607841F48061A0F13D
:104750003003092B04F1010240F23F812A2800F0C6
:104760004B81144658E75446D04501D808F1FF3A2A
:104770004346524639460020D84720461BB0BDE884
:10478000F08F099B607853F8045B0134002DBCBFA7
:1047900041F002016D4209933BE7524643463946D8
:1047A00001340AF1010AD84710E700BF9145001013
:1047B000643E0020D13A0010782800F07A81582811
:1047C00000F0C0816F2800F00E82622800F06A833A
:1047D00021F0100369284FF00A090B9340F006827C
:1047E000490500F16D810B9B13F4007040F00882C5
:1047F00013F4807140F0E3825E06099A00F1498269
:1048000013F0800F52F8043B00F097831BB209921B
:1048100083EAE372A2EBE37292B2D80F0D90002B01
:1048200040F065820B9820F0100340050B9340F197
:104830005E8212AB0C9352460B9BCDE905530A9B4B
:10484000CDE903930D9BCDE901130C9B00934346E7
:1048500039465846FFF782F982467EE0607841F497
:104860000071013406E76078682800F0638141F048
:1048700080010134FEE660786C2800F0568141F436
:1048800080710134F6E60A9B462808BF41F02001FA
:104890000293099BCDE90351073323F00705B5ECDB
:1048A000027B52464346394658468DED007B0995BA
:1048B000FFF782FC0134824688E60AF10100524685
:1048C00043468246394625200134D8477EE6099B77
:1048D00053F8046B0D930A9B3078002B00F0D880BE
:1048E000002800F032835A1E0132B146324401E002
:1048F000914503D019F8013F002BF9D1A9EB06032C
:10490000099311F480630B9305D0DDE909329342DA
:1049100028BF1346099311F002030C9300F049815C
:10492000002800F034810B9B002B00F0B7800A9B1D
:1049300052465344994608E043463946D84716F84C
:10494000010F0AF1010A10B15246D145F4D10C9B76
:10495000002B40F01C810D9B0993013436E6099829
:1049600050F8043B002B74D041F0210512AA1646E2
:1049700000210C9202E0202974D0134603F00F0CA2
:104980006246BCF1090F94BF303237320F2B06F864
:10499000012B01F101014FEA1312ECD862E08B0701
:1049A00040F1DA80DDF82490524659F8040B434672
:1049B0003946C0B2D847012D0AF1010688BFAA4482
:1049C00040F2918132464346394620200136D8478D
:1049D0005645F7D1CDF82490BFE7002303EB8303BE
:1049E00000EB430312F8010F303BA0F13004092C17
:1049F000F4D914460A9311E6099BA07853F8042BC6
:104A00000234099322EAE2730A9307E600F0DF0317
:104A1000472B08BF00F0FD000A9B08BF41F400616E
:104A2000452808BF41F020010293099BCDE90351BD
:104A3000073323F00705B5EC027B5246434639465F
:104A400058468DED007B0995FFF786F901348246C3
:104A5000BCE521F010054E0545F0210586D5194627
:104A600012AB0C930A9B524604930C9B019100934A
:104A700008230593102303930023099002933946DA
:104A8000434658460695FFF769F8013482469DE58E
:104A90006FF0010200287FF427AF31E7524643460A
:104AA0003946D84716F8010F0AF1010A0028F5D156
:104AB0004DE74FF0100921F00C0349050B9303D586
:104AC0000B9B23F001030B9369283FF48CAE642801
:104AD0003FF489AE0B9B13F4007040F0528113F445
:104AE000807140F0C6815E0640F1F080099B53F86A
:104AF000042B0993D2B2002A40F01E810B9820F0BB
:104B0000100340050B9340F11781114612AB0C9333
:104B10000B9B0191CDE905530A9BCDE903935246C6
:104B20000C9B00930023029391E6A07841F440711E
:104B300002349FE5A07841F0C00102349AE50446B2
:104B4000824611E621F00C0343F020030B934B0542
:104B50004FF01009B4D4BDE7012D40F2F4810AF101
:104B6000FF331D4452464346394620200AF1010ACC
:104B7000D847AA45F6D1099E434656F8040B2A4663
:104B80003946C0B2D84705F1010A0996E5E6099B06
:104B900056469D427FF6DFAE05EB0A00A0EB030A06
:104BA00032464346394620200136D8475645F7D18C
:104BB000D1E6099A954202F1010340F2C88105EB62
:104BC0000A09A9EB020952464346394620200AF158
:104BD000010AD847CA45F6D130786B1C09930028E2
:104BE0007FF4A1AEB7E64FF008090B91642818BF17
:104BF0000B997FF460AF0B9B5A053FF561AFF2E56F
:104C0000099B073323F007031A4610465B6850F8E8
:104C1000082B002B19461646099060DB0846D90F71
:104C200013430D913BD00B9B002113F0200F14BFB9
:104C30004123612312AA0A3BCDE90EA51094CDF8B9
:104C400044B00D46144682469B460C9203E0202D4C
:104C500017D006468A4630464A46514600231BF086
:104C6000DBFFD2B2092A02F1300388BF02EB0B034B
:104C7000DBB24E4504F8013B7AF1000305F1010572
:104C8000E5D22A46DDF838A0109C0F9DDDF844B02F
:104C90000FE052F8043BDBB209921A46BDE50B9ACD
:104CA00022F0100352050B93BDD500231A4612AB18
:104CB0000C930B9B0192CDE905530A9B5246CDE91B
:104CC00003930D9B02930C9B0093C0E513F0800FA0
:104CD000099B53F8042B099318BF92B20BE7564275
:104CE00063EB43019AE7B246CDF8249035E60B9B7F
:104CF00013F0200F14BF4FF0410E4FF0610E12ABB6
:104D00009C460C93AEF10A0E03E020293FF493ADCC
:104D10003246B2FBF9F609FB1620C3B2092803F1AB
:104D200030008ABF7344C3B2DBB24A450CF8013B82
:104D300001F10101E9D27EE50B9B13F0200F14BFB6
:104D40004FF0410E4FF0610E12AB9C460C93AEF14A
:104D50000A0E03E020293FF4DBAE3246B2FBF9F63F
:104D600009FB1620C3B2092803F130008ABF73443F
:104D7000C3B2DBB24A450CF8013B01F10101E9D2B3
:104D8000C6E6099B073323F007035A6853F8086BFC
:104D90001046099356EA020335D10B9A22F010030C
:104DA00052050B932FD500231A4612AB0C930B9B85
:104DB0000192CDE905530A9BCDE90393AFE6099B28
:104DC0001A4652F8043B0D92D90F83EAE372A2EB24
:104DD000E3720991002B68D10B9921F010030B931A
:104DE0004B0562D512AB0C930B9B5246CDE9055394
:104DF0000A9BCDE90393099BCDE901030C9B00932A
:104E00000D9B099323E50B9B002113F0200F14BF8A
:104E10004123612312AA0A3BCDE90DA50F94CDF8D9
:104E200040B00D46144682469B460C9203E0202D6E
:104E300017D006468A4630464A46514600231BF0A4
:104E4000EBFED2B2092A02F1300388BF02EB0B035A
:104E5000DBB24E4504F8013B7AF1000305F1010590
:104E6000E5D22A46DDF834A00F9C0E9DDDF840B057
:104E70009DE7099B53F8042B0993002A39D10B991C
:104E800021F010030B934B0533D512AB0C930B9B06
:104E90005246CDE905530A9B0190CDE903930C9B43
:104EA00000933FE64FF002099FE60B9B13F0200FA3
:104EB00014BF4FF0410E4FF0610E12AB9C460C93A5
:104EC000AEF10A0E02E020288ED03246B2FBF9F68F
:104ED00009FB1621CBB2092903F130018ABF7344C3
:104EE000CBB2DBB24A450CF8013B00F10100EAD23B
:104EF0007AE70B9B13F0200F14BF4FF0410E4FF0D9
:104F0000610E12AB9C460C93AEF10A0E02E0202813
:104F1000BDD03246B2FBF9F609FB1621CBB2092906
:104F200003F130018ABF7344CBB2DBB24A450CF8BF
:104F3000013B00F10100EAD2A9E7099283EAE3729A
:104F4000A2EBE37269E4554615E60990D9E40993AA
:104F500000287FF4E8ACFEE40EB410B585B007ACD1
:104F600054F8043B01464FF0FF3200940448039488
:104F7000FFF70EFB05B0BDE8104003B0704700BF5F
:104F8000C93A001084460CB410B584B006AC54F88D
:104F9000043B0A460094614604480394FFF7F8FA7C
:104FA00004B0BDE8104002B0704700BFC93A00101D
:104FB00030B594468E4605461C4683B02946724657
:104FC000634600940248FFF7E3FA03B030BD00BF28
:104FD000C93A001070B594461E4605460C4684B08A
:104FE0004FF0FF32634602A900960348CDE9025410
:104FF000FFF7CEFA04B070BD4D3D00100FB410B5F0
:105000000E4B84B006A91C6851F8043B03915CB1B7
:1050100000914FF0FF3202A90948A047012004B0D7
:10502000BDE8104004B07047184600F063FA20460F
:1050300004B0BDE8104004B0704700BF643E0020DB
:10504000453D001010B5094B84B01C684CB10346B7
:1050500000914FF0FF3203A90548A047012004B09A
:1050600010BD00F047FA204604B010BD643E002099
:10507000453D001000BEFDE7074A0346106838B101
:10508000064903448B428CBF4FF0FF3013607047DA
:10509000034908461160F3E7343A00200000082075
:1050A000A0E800200B46114628B9044A1846D2E968
:1050B000002300F04BB94FF0FF307047D8150210B5
:1050C000431E012B09D810B51446084601230022BF
:1050D000214600F0C7F8204610BD4FF0FF30704762
:1050E0004FF0FF30704700BF4FF0FF30704700BFF8
:1050F00008B5FFF7BFFF00BF144600B5024683B0F6
:10510000084619464CB1064D0346019405480095E2
:10511000FFF774FF0120FFF7ADFF034D2C46F3E7C7
:1051200008170210181702102C33021038B5064D5C
:10513000064CFEF7ADF8AC4204D254F8043B984755
:10514000AC42FAD338BD00BFB80C0210B00C02104C
:105150000368084611461847437D2DE9F04782460B
:105160000F469146002B44D0002A2ADD0024012559
:105170002046DFF88C804E1E2CB3337816F8012FB2
:10518000A3F10D03B3FA83F30A2A4FEA531320D095
:105190002B46994504F1010405F10105ECDC81453C
:1051A00005DDA9EB0001DAF80030384498474F4498
:1051B00017F8013CA3F10D03B3FA83F35B098AF8F6
:1051C0001430BDE8F08716F8012F9AF814300A2A37
:1051D000DED1002BDCD1A04204DA211ADAF800304B
:1051E0003844984740460221DAF80030984728466C
:1051F000CEE73846DAF800301146BDE8F0471847E8
:10520000481702100B682DE9F041802B0D46064629
:1052100005D05A1C2B442A601E71BDE8F0810F4B4B
:105220001C68A4B10E4F01F1040801E0246974B1B7
:105230002368002BFAD03B680BB1A342F6D120467D
:1052400041462A68FFF788FF2469002CF0D100232B
:1052500001222B442A601E71BDE8F081FC38002039
:10526000043900202DE9F04782B00D469246994658
:105270000746FDF72BFE2F4A821841F10003002B51
:10528000BCBF4FF0FF326FF000432B481BF0D4FC43
:105290006B1C804603D1384616F044F80546274B70
:1052A000274E1C68274BB9F1000F08BF1E46B4B14A
:1052B000BAF1000F1AD1DFF8909001E0246974B1BF
:1052C0002368002BFAD0D9F800300BB1A342F5D1F6
:1052D00020462A463946B0472469002CF0D1B8F15F
:1052E000000F1FD1284602B0BDE8F0874FF00A0A30
:1052F000DFF8549002E02469002CF0D02368002BE2
:10530000F9D0D9F800300BB1A342F4D120462A4697
:105310003946B047204601220DF107018DF807A05C
:10532000B047E8E704481BF07BFC284602B0BDE824
:10533000F08700BF40420F0028210020FC380020E9
:105340005951001051510010043900202DE9F04F3F
:1053500007460E46984683B0DFF860B0DFF860A0DD
:10536000DFF860900192DBF8004014B911E0246985
:105370007CB1DAF800500DB1A542F8D1A368002B3A
:10538000F5D03146384698470028F0DD03B0BDE837
:10539000F08FD9F8243098450BD8D9F828200199F6
:1053A0008A4201D2984504D06FF0010003B0BDE8F5
:1053B000F08F01200021FDF793FDD4E7FC38002099
:1053C0000439002000000B40084A136823B90AE0A2
:1053D00003F110021B6933B19842F9D129B903696D
:1053E00013600161704701B110607047FC38002004
:1053F00000F00CBB2DE9F04182B00646FDF766FDDA
:10540000361841F100010029AEBF88466FF0004810
:105410004FF0FF36154F164D3C6814B912E0246961
:1054200084B12B680BB1A342F9D1A368002BF6D04D
:10543000012101A898470028F1DD9DF8040002B081
:10544000BDE8F0810B4B5A6A424509D39B6AB342CF
:1054500001D2424504D06FF0010002B0BDE8F081F6
:1054600001200021FDF73CFDD6E700BFFC380020FD
:105470000439002000000B40F0B583B006468DF8DB
:105480000700FDF723FD174A821841F10003002BA6
:10549000BCBF6FF000434FF0FF3213481BF0CCFB52
:1054A000124B07461C689CB1114D01E024697CB188
:1054B0002368002BFAD02B680BB1A342F6D120460B
:1054C00001220DF10701FFF747FE2469002CEFD1FF
:1054D00017B9304603B0F0BD03481BF0A1FB3046BE
:1054E00003B0F0BD40420F0028210020FC3800200E
:1054F0000439002038B5044615F014FF0123054691
:105500001A4620462946FFF7ADFE084B1C682CB111
:1055100063682BB198472469002CF9D1284638BD1F
:105520002469002CF4D1284638BD00BFFC38002087
:105530002DE9F041A2B004460D46FDF7C7FC274A0D
:105540000026821841F10003002BBCBF4FF0FF3250
:105550006FF0004322481BF06FFB2B4607462246A4
:10556000204801A90196FFF735FD019B06467BB94E
:105570001D4B1C682CB1636843B198472469002C0B
:10558000F9D10FBB304622B0BDE8F0812469F1E7C4
:10559000DFF85480D8F80050EDB1144C01E02D69CB
:1055A00075B12B68002BFAD023680BB19D42F6D160
:1055B0002846019A02A9FFF7CFFD2D69002DF0D1F1
:1055C000D8F800400195D5E705481BF029FB304687
:1055D00022B0BDE8F0810195D3E700BF40420F0043
:1055E0002821002005520010FC380020043900203A
:1055F0000FB400B583B004A951F8040B0191FFF773
:1056000097FF03B05DF804EB04B07047704700BF2C
:105610000022014B1A70704792E800204B79FF2B53
:105620000BD1887948B9CB79012B07D1082A05D944
:10563000034B8A7809201A7070470020704700BF1A
:1056400092E8002001207047012908D110B5124BC3
:105650000C461B789188994203D0002010BD012090
:1056600070475378012B08D0022BF6D10021642219
:105670000846FDF721FD204610BD5188CB054BBFE4
:105680004A0A4A0A10464FF0FF3002F0010201F0C8
:105690007F01FDF793FD00BF92E8002000487047AE
:1056A0006C170210012907D15378012B02D193887E
:1056B000072B03D000207047012070471146A62316
:1056C000014A01F05FBA00BF9017021003460122A1
:1056D00001481A70704700BF4C17021008B50B68DC
:1056E000B3F5966F00D008BD00224FF0FF30114691
:1056F000FDF764FD024A034B10601960704700BF5C
:10570000382A00203C2A0020184B70B51A68002A5D
:1057100028D0EFF3108172B6D2E8CF4F0120002CD1
:10572000FAD1C2E8440F002CF6D1BFF35F8F0022FC
:105730000F4C186859602270C0E88F2F81F31088D1
:10574000002400250B4E3078FCF74CFC20B90024D7
:1057500000252046294670BD3078FCF753FC2046D2
:10576000294670BD4FF47A740025EBE70CD8002071
:1057700095E8002093E80020014B1878FCF742BC24
:1057800093E8002038B5044600200D4601F042FBA6
:1057900090B3002001F054FB70B3FDF797FB184A5B
:1057A000821841F10003002BBCBF4FF0FF326FF0B5
:1057B000004314481BF040FAF0B1002001F02AFB2E
:1057C00058B900214FF0FF3000F024FD6FF00204C3
:1057D0000C481BF025FA204638BD002001F030FBB4
:1057E0000028EED021462A46002001F035FB041E99
:1057F00008BF6FF00204EBE76FF00204EBE700BFB5
:1058000040420F0014E8002008B5FDF75FFB0F4A87
:10581000821841F10003002BBCBF4FF0FF326FF044
:1058200000430B481BF008FA70B14FF0FF30002125
:1058300000F0F0FC002001F057FB0028F5D1BDE896
:10584000084003481BF0ECB908BD00BF40420F0000
:1058500014E800202DE9F84307460E46FDF736FB15
:10586000344A821841F10003002BBCBF4FF0FF32D5
:105870006FF0004330481BF0DFF908B9BDE8F8834A
:10588000002001F0C7FA002849D0002E42DD002593
:10589000DFF8A880DFF8A89013E02246002001F08E
:1058A00067FB002104464FF0FF3000F0B3FC0020FE
:1058B00001F01AFBFDF70AFBC8E900012544AE42DE
:1058C00028DD002001F078FB741B8442A8BF044649
:1058D0007919002CE1D121464FF0FF3000F09AFCFD
:1058E000204601F001FB204601F094FA90B12046D9
:1058F00001F062FB0028E2D1FDF7E8FAD8F80030A9
:10590000D8F8042013EB090342F10002834272EB42
:105910000103D4D20848BDE8F8431BF081B9002048
:105920000021064BC3E90001BDE8F84302481BF023
:1059300077B900BF40420F0014E80020F822002091
:1059400020A1070030B5002185B02A481BF084F95A
:10595000F0B9294B1A68CAB1EFF3108172B6D2E8D8
:10596000CF5F0124002DFAD1C2E8454F002DF6D1BA
:10597000BFF35F8F214C1D6822785960D3B201229A
:105980002270C5E88F0F81F31088CBB105B030BD10
:1059900000214FF0FF3000F03DFC002001F050FAF4
:1059A000044614481BF03CF9002CEFD0144B1B6844
:1059B000002BEBD0134A106805B0BDE83040184703
:1059C000FDF776F80446FDF781FA10F57A7241F199
:1059D00000030125002120460B4C002BBCBF4FF0DB
:1059E000FF326FF00043CDE901150094FDF764F834
:1059F00005B030BD14E800200CD8002095E8002048
:105A0000382A00203C2A0020095700104FF050434C
:105A100030B585B01C68FDF74BF8FDF75DF9A04285
:105A200002D0002005B030BD0021274B08461B786E
:105A300001F090FD25480368002B42D00120FCF7BF
:105A400093FD0346224C2349C0B22370FCF7F8FAB9
:105A500020780121FCF7B0FA0E20FCF7E1FA18BB20
:105A60001D4B0125C3E90000FDF722F80446FDF7B0
:105A70002DFA10F57A7241F1000300212046174CEF
:105A8000002BBCBF4FF0FF326FF00043CDE9011592
:105A90000094FDF711F80028C3DB01211048FFF73F
:105AA00093FC012005B030BD0120FCF741FA01460E
:105AB0000948FCF7D7FD00220E200A49FCF7F0FA4E
:105AC000EBE7FCF7A5FDB9E75CB3051014E800208F
:105AD00093E80020455900100CD800200957001009
